{
  "contractName": "Casino",
  "abi": [
    {
      "inputs": [],
      "stateMutability": "nonpayable",
      "type": "constructor"
    },
    {
      "inputs": [],
      "name": "lastPayoutAmount",
      "outputs": [
        {
          "internalType": "uint256",
          "name": "",
          "type": "uint256"
        }
      ],
      "stateMutability": "view",
      "type": "function"
    },
    {
      "inputs": [],
      "name": "lastWin",
      "outputs": [
        {
          "internalType": "string",
          "name": "",
          "type": "string"
        }
      ],
      "stateMutability": "view",
      "type": "function"
    },
    {
      "inputs": [
        {
          "internalType": "string",
          "name": "color",
          "type": "string"
        }
      ],
      "name": "vote",
      "outputs": [],
      "stateMutability": "payable",
      "type": "function"
    },
    {
      "inputs": [
        {
          "internalType": "string",
          "name": "color",
          "type": "string"
        }
      ],
      "name": "pickWinner",
      "outputs": [],
      "stateMutability": "nonpayable",
      "type": "function"
    },
    {
      "inputs": [
        {
          "internalType": "string",
          "name": "color",
          "type": "string"
        }
      ],
      "name": "getNumberOfVotersByColor",
      "outputs": [
        {
          "internalType": "uint256",
          "name": "",
          "type": "uint256"
        }
      ],
      "stateMutability": "view",
      "type": "function"
    },
    {
      "inputs": [],
      "name": "getLastWin",
      "outputs": [
        {
          "internalType": "string",
          "name": "",
          "type": "string"
        }
      ],
      "stateMutability": "view",
      "type": "function"
    }
  ],
  "bytecode": "0x608060405234801561001057600080fd5b50336000806101000a81548173ffffffffffffffffffffffffffffffffffffffff021916908373ffffffffffffffffffffffffffffffffffffffff160217905550610a5c806100606000396000f3fe6080604052600436106100555760003560e01c806327e250691461005a57806356109065146100835780637f5375c1146100ae578063cdeda4f3146100d9578063fc36e15b14610104578063fe62a44214610120575b600080fd5b34801561006657600080fd5b50610081600480360381019061007c9190610669565b61015d565b005b34801561008f57600080fd5b50610098610392565b6040516100a591906107d9565b60405180910390f35b3480156100ba57600080fd5b506100c3610398565b6040516100d09190610797565b60405180910390f35b3480156100e557600080fd5b506100ee61042a565b6040516100fb9190610797565b60405180910390f35b61011e60048036038101906101199190610669565b6104b8565b005b34801561012c57600080fd5b5061014760048036038101906101429190610669565b6105e5565b60405161015491906107d9565b60405180910390f35b60008054906101000a900473ffffffffffffffffffffffffffffffffffffffff1673ffffffffffffffffffffffffffffffffffffffff163373ffffffffffffffffffffffffffffffffffffffff16146101b557600080fd5b6000600183836040516101c9929190610769565b908152602001604051809103902080548060200260200160405190810160405280929190818152602001828054801561025757602002820191906000526020600020905b8160009054906101000a900473ffffffffffffffffffffffffffffffffffffffff1673ffffffffffffffffffffffffffffffffffffffff168152602001906001019080831161020d575b5050505050905060005b815181101561038c57600082828151811061027f5761027e6109a1565b5b602002602001015190506000808273ffffffffffffffffffffffffffffffffffffffff16600260008573ffffffffffffffffffffffffffffffffffffffff1673ffffffffffffffffffffffffffffffffffffffff168152602001908152602001600020546040516102ef90610782565b60006040518083038185875af1925050503d806000811461032c576040519150601f19603f3d011682016040523d82523d6000602084013e610331565b606091505b509150915081610376576040517f08c379a000000000000000000000000000000000000000000000000000000000815260040161036d906107b9565b60405180910390fd5b5050508080610384906108fa565b915050610261565b50505050565b60045481565b6060600380546103a7906108c8565b80601f01602080910402602001604051908101604052809291908181526020018280546103d3906108c8565b80156104205780601f106103f557610100808354040283529160200191610420565b820191906000526020600020905b81548152906001019060200180831161040357829003601f168201915b5050505050905090565b60038054610437906108c8565b80601f0160208091040260200160405190810160405280929190818152602001828054610463906108c8565b80156104b05780601f10610485576101008083540402835291602001916104b0565b820191906000526020600020905b81548152906001019060200180831161049357829003601f168201915b505050505081565b66354a6ba7a180003410156104cc57600080fd5b600182826040516104de929190610769565b9081526020016040518091039020339080600181540180825580915050600190039060005260206000200160009091909190916101000a81548173ffffffffffffffffffffffffffffffffffffffff021916908373ffffffffffffffffffffffffffffffffffffffff1602179055506000600260003373ffffffffffffffffffffffffffffffffffffffff1673ffffffffffffffffffffffffffffffffffffffff168152602001908152602001600020549050348161059d9190610826565b600260003373ffffffffffffffffffffffffffffffffffffffff1673ffffffffffffffffffffffffffffffffffffffff16815260200190815260200160002081905550505050565b6000600183836040516105f9929190610769565b908152602001604051809103902080549050905092915050565b60008083601f840112610629576106286109d5565b5b8235905067ffffffffffffffff811115610646576106456109d0565b5b602083019150836001820283011115610662576106616109da565b5b9250929050565b600080602083850312156106805761067f6109e4565b5b600083013567ffffffffffffffff81111561069e5761069d6109df565b5b6106aa85828601610613565b92509250509250929050565b60006106c2838561081b565b93506106cf838584610886565b82840190509392505050565b60006106e6826107f4565b6106f0818561080a565b9350610700818560208601610895565b610709816109e9565b840191505092915050565b600061072160148361080a565b915061072c826109fa565b602082019050919050565b60006107446000836107ff565b915061074f82610a23565b600082019050919050565b6107638161087c565b82525050565b60006107768284866106b6565b91508190509392505050565b600061078d82610737565b9150819050919050565b600060208201905081810360008301526107b181846106db565b905092915050565b600060208201905081810360008301526107d281610714565b9050919050565b60006020820190506107ee600083018461075a565b92915050565b600081519050919050565b600081905092915050565b600082825260208201905092915050565b600081905092915050565b60006108318261087c565b915061083c8361087c565b9250827fffffffffffffffffffffffffffffffffffffffffffffffffffffffffffffffff0382111561087157610870610943565b5b828201905092915050565b6000819050919050565b82818337600083830152505050565b60005b838110156108b3578082015181840152602081019050610898565b838111156108c2576000848401525b50505050565b600060028204905060018216806108e057607f821691505b602082108114156108f4576108f3610972565b5b50919050565b60006109058261087c565b91507fffffffffffffffffffffffffffffffffffffffffffffffffffffffffffffffff82141561093857610937610943565b5b600182019050919050565b7f4e487b7100000000000000000000000000000000000000000000000000000000600052601160045260246000fd5b7f4e487b7100000000000000000000000000000000000000000000000000000000600052602260045260246000fd5b7f4e487b7100000000000000000000000000000000000000000000000000000000600052603260045260246000fd5b600080fd5b600080fd5b600080fd5b600080fd5b600080fd5b6000601f19601f8301169050919050565b7f4661696c656420746f2073656e64204574686572000000000000000000000000600082015250565b5056fea2646970667358221220cc27135a18ca2191bb3a4738e53e9b551c58c0948efe93770f1f1a86d3bd516f64736f6c63430008070033",
  "immutableReferences": {},
  "source": "// SPDX-License-Identifier: MIT\npragma solidity ^0.8.2;\n\ncontract Casino  {\n    address internal owner;\n\n    mapping(string => address[]) internal votersByColor;\n\n    mapping(address => uint) internal playerBetAmounts;\n\n    string public lastWin;\n    uint public lastPayoutAmount;\n\n    constructor() {\n        owner = msg.sender;\n    }\n\n    function vote(string calldata color) external payable {\n        require(msg.value >= .015 ether);\n\n        votersByColor[color].push(msg.sender);\n\n        uint betAmount = playerBetAmounts[msg.sender];\n        playerBetAmounts[msg.sender] = betAmount + msg.value;\n    }\n\n    function pickWinner(string calldata color) external {\n        require(msg.sender == owner);\n\n        address[] memory _winners = votersByColor[color];\n\n        for (uint i = 0; i < _winners.length; i++ ) {\n            address _winner = _winners[i];\n            (bool sent, bytes memory data) = _winner.call{value: playerBetAmounts[_winner]}(\"\");\n            require(sent, \"Failed to send Ether\");\n        }\n    }\n    \n    function getNumberOfVotersByColor(string calldata color) external view returns(uint) {\n        return votersByColor[color].length;\n    }\n    \n    function getLastWin() external view returns(string memory) {\n        return lastWin;\n    }\n}\n",
  "sourcePath": "/Users/zacherygentry/Projects/eth-gamble-site/contracts/Casino.sol",
  "compiler": {
    "name": "solc",
    "version": "0.8.7+commit.e28d00a7.Emscripten.clang"
  },
  "schemaVersion": "3.4.3",
  "updatedAt": "2021-08-18T06:57:42.832Z",
  "devdoc": {
    "kind": "dev",
    "methods": {},
    "version": 1
  },
  "userdoc": {
    "kind": "user",
    "methods": {},
    "version": 1
  }
}