{
  "contractName": "ExampleContract",
  "abi": [
    {
      "inputs": [],
      "stateMutability": "nonpayable",
      "type": "constructor"
    },
    {
      "inputs": [],
      "name": "owner",
      "outputs": [
        {
          "internalType": "address",
          "name": "",
          "type": "address"
        }
      ],
      "stateMutability": "view",
      "type": "function",
      "constant": true
    },
    {
      "inputs": [],
      "name": "total",
      "outputs": [
        {
          "internalType": "uint256",
          "name": "",
          "type": "uint256"
        }
      ],
      "stateMutability": "view",
      "type": "function",
      "constant": true
    },
    {
      "inputs": [
        {
          "internalType": "uint256",
          "name": "_num",
          "type": "uint256"
        }
      ],
      "name": "addToTotal",
      "outputs": [],
      "stateMutability": "nonpayable",
      "type": "function"
    },
    {
      "inputs": [],
      "name": "pay",
      "outputs": [],
      "stateMutability": "payable",
      "type": "function",
      "payable": true
    },
    {
      "inputs": [],
      "name": "getPayers",
      "outputs": [
        {
          "internalType": "address[]",
          "name": "",
          "type": "address[]"
        }
      ],
      "stateMutability": "view",
      "type": "function",
      "constant": true
    }
  ],
  "bytecode": "0x608060405234801561001057600080fd5b50336000806101000a81548173ffffffffffffffffffffffffffffffffffffffff021916908373ffffffffffffffffffffffffffffffffffffffff16021790555060006001819055506104d9806100686000396000f3fe60806040526004361061004a5760003560e01c80631055d7081461004f5780631b9265b81461007a5780632ddbd13a14610084578063623f577a146100af5780638da5cb5b146100d8575b600080fd5b34801561005b57600080fd5b50610064610103565b6040516100719190610350565b60405180910390f35b610082610191565b005b34801561009057600080fd5b5061009961020a565b6040516100a69190610372565b60405180910390f35b3480156100bb57600080fd5b506100d660048036038101906100d19190610265565b610210565b005b3480156100e457600080fd5b506100ed61022c565b6040516100fa9190610335565b60405180910390f35b6060600280548060200260200160405190810160405280929190818152602001828054801561018757602002820191906000526020600020905b8160009054906101000a900473ffffffffffffffffffffffffffffffffffffffff1673ffffffffffffffffffffffffffffffffffffffff168152602001906001019080831161013d575b5050505050905090565b67016345785d8a000034116101a557600080fd5b6002339080600181540180825580915050600190039060005260206000200160009091909190916101000a81548173ffffffffffffffffffffffffffffffffffffffff021916908373ffffffffffffffffffffffffffffffffffffffff160217905550565b60015481565b806001600082825461022291906103c6565b9250508190555050565b60008054906101000a900473ffffffffffffffffffffffffffffffffffffffff1681565b60008135905061025f8161048c565b92915050565b60006020828403121561027b5761027a610487565b5b600061028984828501610250565b91505092915050565b600061029e83836102aa565b60208301905092915050565b6102b38161041c565b82525050565b6102c28161041c565b82525050565b60006102d38261039d565b6102dd81856103b5565b93506102e88361038d565b8060005b838110156103195781516103008882610292565b975061030b836103a8565b9250506001810190506102ec565b5085935050505092915050565b61032f8161044e565b82525050565b600060208201905061034a60008301846102b9565b92915050565b6000602082019050818103600083015261036a81846102c8565b905092915050565b60006020820190506103876000830184610326565b92915050565b6000819050602082019050919050565b600081519050919050565b6000602082019050919050565b600082825260208201905092915050565b60006103d18261044e565b91506103dc8361044e565b9250827fffffffffffffffffffffffffffffffffffffffffffffffffffffffffffffffff0382111561041157610410610458565b5b828201905092915050565b60006104278261042e565b9050919050565b600073ffffffffffffffffffffffffffffffffffffffff82169050919050565b6000819050919050565b7f4e487b7100000000000000000000000000000000000000000000000000000000600052601160045260246000fd5b600080fd5b6104958161044e565b81146104a057600080fd5b5056fea2646970667358221220e0ec67968dd08757bd59e1bca2d81d2e082af5bb705b544c9f50cc1a1cc38afa64736f6c63430008070033",
  "immutableReferences": {},
  "source": "// SPDX-License-Identifier: MIT\npragma solidity ^0.8.2;\n\ncontract ExampleContract {\n    address public owner;\n    uint public total;\n    address[] payers;\n\n    constructor() {\n        owner = msg.sender;\n        total = 0;\n    }\n\n    function addToTotal(uint _num) external {\n        total += _num;\n    }\n\n    function pay() external payable {\n        require(msg.value > .1 ether);\n        payers.push(msg.sender);\n    }\n\n    function getPayers() external view returns(address[] memory) {\n        return payers;\n    }\n\n}\n",
  "sourcePath": "/Users/zacherygentry/Projects/dapp-starter/contracts/ExampleContract.sol",
  "compiler": {
    "name": "solc",
    "version": "0.8.7+commit.e28d00a7.Emscripten.clang"
  },
  "schemaVersion": "3.4.3",
  "updatedAt": "2021-08-18T03:55:58.757Z",
  "networkType": "ethereum",
  "devdoc": {
    "kind": "dev",
    "methods": {},
    "version": 1
  },
  "userdoc": {
    "kind": "user",
    "methods": {},
    "version": 1
  }
}